:100000000C9446000C9465000C9465000C946500FB
:100010000C9465000C9465000C9465000C946500CC
:100020000C9465000C9465000C9465000C946500BC
:100030000C9465000C9465000C9465000C946500AC
:100040000C9465000C9465000C9465000C9465009C
:100050000C9465000C9465000C9465000C9465008C
:100060000C9465000C9465000C9465000C9465007C
:100070000C9465000C9465000C9465000C9465006C
:100080000C9465000C9465000C94650011241FBE4F
:10009000CFEFD0E4DEBFCDBF11E0A0E0B1E0ECEFE8
:1000A000F5E000E00BBF02C007900D92AE30B10743
:1000B000D9F721E0AEE0B1E001C01D92A431B20752
:1000C000E1F70E94F5010C94FC020C940000CF9320
:1000D000DF9300D01F92CDB7DEB789837B836A831D
:1000E00089818A3031F48A819B81BC018DE00E9434
:1000F000670080EC90E0FC018081882F90E08072A6
:100100009927892BB1F386EC90E02981FC012083AB
:1001100080E090E00F900F900F90DF91CF910895C5
:10012000CF93DF93CDB7DEB728970FB6F894DEBF35
:100130000FBECDBF6D837E838F83988719821A820D
:100140001B821C8210C020E030E040E85FE3698140
:100150007A818B819C810E941602DC01CB0189830C
:100160009A83AB83BC832D813E814F815885698101
:100170007A818B819C810E948202882324F3000073
:1001800028960FB6F894DEBF0FBECDBFDF91CF919A
:100190000895CF93DF9300D000D0CDB7DEB780E2D3
:1001A00090E0FC018081882F90E08170992721E008
:1001B000892B09F020E0822F80930E01809112019B
:1001C000909113018130910589F08130910538F0CB
:1001D00082309105B1F0039709F448C07EC081E0F8
:1001E00090E090931301809312017CC082E090E034
:1001F000909313018093120110921101109210013B
:1002000071C080910E0131E0813009F030E08091C1
:1002100010019091110121E0892B09F020E0832F3A
:100220008223882369F083E090E090931301809308
:10023000120183E090E0909311018093100152C06D
:1002400080910E01882359F482E090E0909313018D
:1002500080931201109211011092100143C082E0AC
:1002600090E090931301809312013CC080910E01A5
:1002700031E0813009F030E080911001909111015E
:1002800021E0029709F020E0832F8223882369F080
:1002900082E090E0909313018093120181E090E05E
:1002A00090931101809310011DC080910E0188234D
:1002B00069F483E090E0909313018093120182E04F
:1002C00090E090931101809310010CC083E090E0C6
:1002D000909313018093120105C0109213011092A4
:1002E000120100008091120190911301813091055B
:1002F00059F08130910508F46FC08230910569F0A2
:10030000039709F44AC069C010920F0185E290E09A
:1003100020910F01FC01208360C01A8219821BC04A
:1003200080910F01880F80930F0180910F018160F0
:1003300080930F0185E290E020910F01FC01208362
:1003400060E070E08AE794E40E94900089819A81DD
:1003500001969A83898389819A8106970CF31C827E
:100360001B8216C080910F01880F80930F0185E2D8
:1003700090E020910F01FC01208360E070E08AE7AB
:1003800094E40E9490008B819C8101969C838B83D6
:100390008B819C81069734F320C085E180930F0107
:1003A00085E290E020910F01FC01208360E070E481
:1003B0008CE196E40E9490008AE280930F0185E22E
:1003C00090E020910F01FC01208360E070E48CE15B
:1003D00096E40E94900001C0000000000F900F9072
:1003E0000F900F90DF91CF910895CF93DF93CDB70A
:1003F000DEB781E290E0FC01108282E290E02FEF14
:10040000FC01208384E290E02FEFFC01208385E251
:1004100090E0FC0110828FE380930F011092130192
:10042000109212010E94C900FDCF5058BB27AA2785
:100430000E942D020C94C2020E94B40238F00E9465
:10044000BB0220F039F49F3F19F426F40C94B1025A
:100450000EF4E095E7FB0C94AB02E92F0E94D30267
:1004600058F3BA17620773078407950720F079F4E9
:10047000A6F50C94F5020EF4E0950B2EBA2FA02DE4
:100480000B01B90190010C01CA01A0011124FF2741
:10049000591B99F0593F50F4503E68F11A16F0403C
:1004A000A22F232F342F4427585FF3CF469537953B
:1004B0002795A795F0405395C9F77EF41F16BA0B00
:1004C000620B730B840BBAF09150A1F0FF0FBB1FAE
:1004D000661F771F881FC2F70EC0BA0F621F731FF7
:1004E000841F48F4879577956795B795F7959E3F54
:1004F00008F0B0CF9395880F08F09927EE0F9795E5
:10050000879508950E94870208F481E00895990F65
:100510000008550FAA0BE0E8FEEF16161706E807CD
:10052000F907C0F012161306E407F50798F0621BEE
:10053000730B840B950B39F40A2661F0232B242BC3
:10054000252B21F408950A2609F4A140A6958FEFE2
:10055000811D811D089597F99F6780E870E060E034
:1005600008959FEF80EC089500240A94161617064C
:1005700018060906089500240A9412161306140694
:1005800005060895092E0394000C11F4882352F0F7
:10059000BB0F40F4BF2B11F460FF04C06F5F7F4FAF
:1005A0008F4F9F4F089557FD9058440F551F59F096
:1005B0005F3F71F04795880F97FB991F61F09F3F50
:1005C00079F087950895121613061406551FF2CF79
:1005D0004695F1DF08C0161617061806991FF1CFC9
:1005E00086957105610508940895E894BB276627F0
:0C05F0007727CB0197F90895F894FFCF0E
:0E05FC00000000020000000067000000000088
:00000001FF
