:100000000C9446000C9465000C9465000C946500FB
:100010000C9465000C9465000C9465000C946500CC
:100020000C9465000C9465000C9465000C946500BC
:100030000C9465000C9465000C9465000C946500AC
:100040000C9465000C9465000C9465000C9465009C
:100050000C9465000C9465000C9465000C9465008C
:100060000C9465000C9465000C9465000C9465007C
:100070000C9465000C9465000C9465000C9465006C
:100080000C9465000C9465000C94650011241FBE4F
:10009000CFEFD0E4DEBFCDBF11E0A0E0B1E0EEE3F2
:1000A000F4E000E00BBF02C007900D92AE30B10744
:1000B000D9F721E0AEE0B1E001C01D92A431B20752
:1000C000E1F70E94FD010C941D020C940000CF93F7
:1000D000DF9300D01F92CDB7DEB789837B836A831D
:1000E00089818A3031F48A819B81BC018DE00E9434
:1000F000670080EC90E0FC018081882F90E08072A6
:100100009927892BB1F386EC90E02981FC012083AB
:1001100080E090E00F900F900F90DF91CF910895C5
:10012000CF93DF93CDB7DEB780E290E0FC01808112
:10013000809580930E01809112019091130181307E
:10014000910591F08130910540F08230910509F4DC
:100150004EC0039709F48EC0E2C081E090E0909316
:10016000130180931201E5C080910E01882369F488
:1001700086E090E0909311018093100182E090E07E
:100180009093130180931201CFC080910E018130B2
:1001900059F4109211011092100183E090E09093B5
:1001A000130180931201C0C080910E01823069F466
:1001B00081E090E0909311018093100183E090E042
:1001C0009093130180931201AFC080910E01833090
:1001D00009F0AAC082E090E0909311018093100191
:1001E00083E090E090931301809312019DC0809171
:1001F0000E01882369F486E090E0909311018093CA
:10020000100182E090E090931301809312018EC060
:1002100080910E01813059F4109211011092100159
:1002200083E090E090931301809312017FC080914E
:100230000E01823069F481E090E090931101809387
:10024000100183E090E090931301809312016EC03F
:1002500080910E01833009F069C082E090E09093B4
:1002600011018093100183E090E09093130180933B
:1002700012015CC080910E01882369F486E090E051
:10028000909311018093100182E090E0909313010C
:10029000809312014DC080910E01813091F48091C4
:1002A000100190911101039709F442C010921101BD
:1002B0001092100183E090E090931301809312015B
:1002C00037C080910E01823099F480911001909195
:1002D0001101049769F181E090E0909311018093FE
:1002E000100183E090E0909313018093120120C0ED
:1002F00080910E018330E1F4809110019091110101
:100300000597B1F082E090E0909311018093100185
:1003100083E090E0909313018093120109C0109242
:1003200013011092120105C0000003C0000001C0BB
:10033000000080911201909113018130910559F0D4
:100340008130910508F452C08230910509F450C003
:10035000039759F04EC087E080930F0188E290E048
:1003600020910F01FC01208344C0809110019091E5
:100370001101892B81F480910F01893080F58091E2
:100380000F018F5F80930F0183E090E09093110144
:100390008093100124C08091100190911101019768
:1003A00081F480910F018823D1F080910F01815059
:1003B00080930F0184E090E09093110180931001ED
:1003C0000EC08091100190911101029741F410929A
:1003D0000F0185E090E0909311018093100188E275
:1003E00090E020910F01FC01208303C0000001C0B8
:1003F00000000000DF91CF910895CF93DF93CDB738
:10040000DEB781E290E0FC01108282E290E02FEF03
:10041000FC01208387E290E02FEFFC01208388E23B
:1004200090E0FC01108287E080930F01109213018D
:0E043000109212010E949000FDCFF894FFCFB1
:0E043E00000000020000000067000000000047
:00000001FF
